{
  "contractName": "Election",
  "abi": [
    {
      "inputs": [],
      "stateMutability": "nonpayable",
      "type": "constructor"
    },
    {
      "inputs": [],
      "name": "admin",
      "outputs": [
        {
          "internalType": "address",
          "name": "",
          "type": "address"
        }
      ],
      "stateMutability": "view",
      "type": "function",
      "constant": true
    },
    {
      "inputs": [
        {
          "internalType": "uint256",
          "name": "",
          "type": "uint256"
        }
      ],
      "name": "candidateDetails",
      "outputs": [
        {
          "internalType": "uint256",
          "name": "candidateId",
          "type": "uint256"
        },
        {
          "internalType": "string",
          "name": "header",
          "type": "string"
        },
        {
          "internalType": "string",
          "name": "slogan",
          "type": "string"
        },
        {
          "internalType": "uint256",
          "name": "voteCount",
          "type": "uint256"
        }
      ],
      "stateMutability": "view",
      "type": "function",
      "constant": true
    },
    {
      "inputs": [
        {
          "internalType": "address",
          "name": "",
          "type": "address"
        }
      ],
      "name": "voterDetails",
      "outputs": [
        {
          "internalType": "address",
          "name": "voterAddress",
          "type": "address"
        },
        {
          "internalType": "string",
          "name": "name",
          "type": "string"
        },
        {
          "internalType": "string",
          "name": "phone",
          "type": "string"
        },
        {
          "internalType": "bool",
          "name": "isVerified",
          "type": "bool"
        },
        {
          "internalType": "bool",
          "name": "hasVoted",
          "type": "bool"
        },
        {
          "internalType": "bool",
          "name": "isRegistered",
          "type": "bool"
        }
      ],
      "stateMutability": "view",
      "type": "function",
      "constant": true
    },
    {
      "inputs": [
        {
          "internalType": "uint256",
          "name": "",
          "type": "uint256"
        }
      ],
      "name": "voters",
      "outputs": [
        {
          "internalType": "address",
          "name": "",
          "type": "address"
        }
      ],
      "stateMutability": "view",
      "type": "function",
      "constant": true
    },
    {
      "inputs": [],
      "name": "getAdmin",
      "outputs": [
        {
          "internalType": "address",
          "name": "",
          "type": "address"
        }
      ],
      "stateMutability": "view",
      "type": "function",
      "constant": true
    },
    {
      "inputs": [
        {
          "internalType": "string",
          "name": "_header",
          "type": "string"
        },
        {
          "internalType": "string",
          "name": "_slogan",
          "type": "string"
        }
      ],
      "name": "addCandidate",
      "outputs": [],
      "stateMutability": "nonpayable",
      "type": "function"
    },
    {
      "inputs": [
        {
          "internalType": "string",
          "name": "_adminName",
          "type": "string"
        },
        {
          "internalType": "string",
          "name": "_adminEmail",
          "type": "string"
        },
        {
          "internalType": "string",
          "name": "_adminTitle",
          "type": "string"
        },
        {
          "internalType": "string",
          "name": "_electionTitle",
          "type": "string"
        },
        {
          "internalType": "string",
          "name": "_organizationTitle",
          "type": "string"
        }
      ],
      "name": "setElectionDetails",
      "outputs": [],
      "stateMutability": "nonpayable",
      "type": "function"
    },
    {
      "inputs": [],
      "name": "getElectionDetails",
      "outputs": [
        {
          "internalType": "string",
          "name": "adminName",
          "type": "string"
        },
        {
          "internalType": "string",
          "name": "adminEmail",
          "type": "string"
        },
        {
          "internalType": "string",
          "name": "adminTitle",
          "type": "string"
        },
        {
          "internalType": "string",
          "name": "electionTitle",
          "type": "string"
        },
        {
          "internalType": "string",
          "name": "organizationTitle",
          "type": "string"
        }
      ],
      "stateMutability": "view",
      "type": "function",
      "constant": true
    },
    {
      "inputs": [],
      "name": "getTotalCandidate",
      "outputs": [
        {
          "internalType": "uint256",
          "name": "",
          "type": "uint256"
        }
      ],
      "stateMutability": "view",
      "type": "function",
      "constant": true
    },
    {
      "inputs": [],
      "name": "getTotalVoter",
      "outputs": [
        {
          "internalType": "uint256",
          "name": "",
          "type": "uint256"
        }
      ],
      "stateMutability": "view",
      "type": "function",
      "constant": true
    },
    {
      "inputs": [
        {
          "internalType": "string",
          "name": "_name",
          "type": "string"
        },
        {
          "internalType": "string",
          "name": "_phone",
          "type": "string"
        }
      ],
      "name": "registerAsVoter",
      "outputs": [],
      "stateMutability": "nonpayable",
      "type": "function"
    },
    {
      "inputs": [
        {
          "internalType": "bool",
          "name": "_verifedStatus",
          "type": "bool"
        },
        {
          "internalType": "address",
          "name": "voterAddress",
          "type": "address"
        }
      ],
      "name": "verifyVoter",
      "outputs": [],
      "stateMutability": "nonpayable",
      "type": "function"
    },
    {
      "inputs": [
        {
          "internalType": "uint256",
          "name": "candidateId",
          "type": "uint256"
        }
      ],
      "name": "vote",
      "outputs": [],
      "stateMutability": "nonpayable",
      "type": "function"
    },
    {
      "inputs": [],
      "name": "endElection",
      "outputs": [],
      "stateMutability": "nonpayable",
      "type": "function"
    },
    {
      "inputs": [],
      "name": "getStart",
      "outputs": [
        {
          "internalType": "bool",
          "name": "",
          "type": "bool"
        }
      ],
      "stateMutability": "view",
      "type": "function",
      "constant": true
    },
    {
      "inputs": [],
      "name": "getEnd",
      "outputs": [
        {
          "internalType": "bool",
          "name": "",
          "type": "bool"
        }
      ],
      "stateMutability": "view",
      "type": "function",
      "constant": true
    }
  ],
  "bytecode": "0x608060405234801561001057600080fd5b50336000806101000a81548173ffffffffffffffffffffffffffffffffffffffff021916908373ffffffffffffffffffffffffffffffffffffffff160217905550600060018190555060006002819055506000600360006101000a81548160ff0219169083151502179055506000600360016101000a81548160ff021916908315150217905550611c3d806100a66000396000f3fe608060405234801561001057600080fd5b50600436106101005760003560e01c806364d198a111610097578063da58c7d911610066578063da58c7d914610928578063ed836bc314610980578063f851a44014610bb3578063fee0d19a14610be757610100565b806364d198a1146108965780636e9960c3146108b45780639f05a36d146108e8578063c5292c671461090857610100565b8063506b8e0a116100d3578063506b8e0a146105ba5780635938750d1461060a57806359f784681461076b5780636247e5321461077557610100565b80630121b93f146101055780630b93400e14610133578063253e74e21461015157806326541b5614610468575b600080fd5b6101316004803603602081101561011b57600080fd5b8101908080359060200190929190505050610d39565b005b61013b610ebc565b6040518082815260200191505060405180910390f35b610466600480360360a081101561016757600080fd5b810190808035906020019064010000000081111561018457600080fd5b82018360208201111561019657600080fd5b803590602001918460018302840111640100000000831117156101b857600080fd5b91908080601f016020809104026020016040519081016040528093929190818152602001838380828437600081840152601f19601f8201169050808301925050505050505091929192908035906020019064010000000081111561021b57600080fd5b82018360208201111561022d57600080fd5b8035906020019184600183028401116401000000008311171561024f57600080fd5b91908080601f016020809104026020016040519081016040528093929190818152602001838380828437600081840152601f19601f820116905080830192505050505050509192919290803590602001906401000000008111156102b257600080fd5b8201836020820111156102c457600080fd5b803590602001918460018302840111640100000000831117156102e657600080fd5b91908080601f016020809104026020016040519081016040528093929190818152602001838380828437600081840152601f19601f8201169050808301925050505050505091929192908035906020019064010000000081111561034957600080fd5b82018360208201111561035b57600080fd5b8035906020019184600183028401116401000000008311171561037d57600080fd5b91908080601f016020809104026020016040519081016040528093929190818152602001838380828437600081840152601f19601f820116905080830192505050505050509192919290803590602001906401000000008111156103e057600080fd5b8201836020820111156103f257600080fd5b8035906020019184600183028401116401000000008311171561041457600080fd5b91908080601f016020809104026020016040519081016040528093929190818152602001838380828437600081840152601f19601f820116905080830192505050505050509192919290505050610ec6565b005b6105b86004803603604081101561047e57600080fd5b810190808035906020019064010000000081111561049b57600080fd5b8201836020820111156104ad57600080fd5b803590602001918460018302840111640100000000831117156104cf57600080fd5b91908080601f016020809104026020016040519081016040528093929190818152602001838380828437600081840152601f19601f8201169050808301925050505050505091929192908035906020019064010000000081111561053257600080fd5b82018360208201111561054457600080fd5b8035906020019184600183028401116401000000008311171561056657600080fd5b91908080601f016020809104026020016040519081016040528093929190818152602001838380828437600081840152601f19601f820116905080830192505050505050509192919290505050611018565b005b610608600480360360408110156105d057600080fd5b81019080803515159060200190929190803573ffffffffffffffffffffffffffffffffffffffff169060200190929190505050611114565b005b61064c6004803603602081101561062057600080fd5b81019080803573ffffffffffffffffffffffffffffffffffffffff1690602001909291905050506111ca565b604051808773ffffffffffffffffffffffffffffffffffffffff1681526020018060200180602001861515815260200185151581526020018415158152602001838103835288818151815260200191508051906020019080838360005b838110156106c45780820151818401526020810190506106a9565b50505050905090810190601f1680156106f15780820380516001836020036101000a031916815260200191505b50838103825287818151815260200191508051906020019080838360005b8381101561072a57808201518184015260208101905061070f565b50505050905090810190601f1680156107575780820380516001836020036101000a031916815260200191505b509850505050505050505060405180910390f35b61077361137d565b005b6107a16004803603602081101561078b57600080fd5b810190808035906020019092919050505061140d565b604051808581526020018060200180602001848152602001838103835286818151815260200191508051906020019080838360005b838110156107f15780820151818401526020810190506107d6565b50505050905090810190601f16801561081e5780820380516001836020036101000a031916815260200191505b50838103825285818151815260200191508051906020019080838360005b8381101561085757808201518184015260208101905061083c565b50505050905090810190601f1680156108845780820380516001836020036101000a031916815260200191505b50965050505050505060405180910390f35b61089e61156d565b6040518082815260200191505060405180910390f35b6108bc611577565b604051808273ffffffffffffffffffffffffffffffffffffffff16815260200191505060405180910390f35b6108f06115a0565b60405180821515815260200191505060405180910390f35b6109106115b7565b60405180821515815260200191505060405180910390f35b6109546004803603602081101561093e57600080fd5b81019080803590602001909291905050506115ce565b604051808273ffffffffffffffffffffffffffffffffffffffff16815260200191505060405180910390f35b61098861160d565b60405180806020018060200180602001806020018060200186810386528b818151815260200191508051906020019080838360005b838110156109d85780820151818401526020810190506109bd565b50505050905090810190601f168015610a055780820380516001836020036101000a031916815260200191505b5086810385528a818151815260200191508051906020019080838360005b83811015610a3e578082015181840152602081019050610a23565b50505050905090810190601f168015610a6b5780820380516001836020036101000a031916815260200191505b50868103845289818151815260200191508051906020019080838360005b83811015610aa4578082015181840152602081019050610a89565b50505050905090810190601f168015610ad15780820380516001836020036101000a031916815260200191505b50868103835288818151815260200191508051906020019080838360005b83811015610b0a578082015181840152602081019050610aef565b50505050905090810190601f168015610b375780820380516001836020036101000a031916815260200191505b50868103825287818151815260200191508051906020019080838360005b83811015610b70578082015181840152602081019050610b55565b50505050905090810190601f168015610b9d5780820380516001836020036101000a031916815260200191505b509a505050505050505050505060405180910390f35b610bbb61194b565b604051808273ffffffffffffffffffffffffffffffffffffffff16815260200191505060405180910390f35b610d3760048036036040811015610bfd57600080fd5b8101908080359060200190640100000000811115610c1a57600080fd5b820183602082011115610c2c57600080fd5b80359060200191846001830284011164010000000083111715610c4e57600080fd5b91908080601f016020809104026020016040519081016040528093929190818152602001838380828437600081840152601f19601f82011690508083019250505050505050919291929080359060200190640100000000811115610cb157600080fd5b820183602082011115610cc357600080fd5b80359060200191846001830284011164010000000083111715610ce557600080fd5b91908080601f016020809104026020016040519081016040528093929190818152602001838380828437600081840152601f19601f82011690508083019250505050505050919291929050505061196f565b005b60001515600b60003373ffffffffffffffffffffffffffffffffffffffff1673ffffffffffffffffffffffffffffffffffffffff16815260200190815260200160002060030160019054906101000a900460ff16151514610d9957600080fd5b60011515600b60003373ffffffffffffffffffffffffffffffffffffffff1673ffffffffffffffffffffffffffffffffffffffff16815260200190815260200160002060030160009054906101000a900460ff16151514610df957600080fd5b60011515600360009054906101000a900460ff16151514610e1957600080fd5b60001515600360019054906101000a900460ff16151514610e3957600080fd5b600160046000838152602001908152602001600020600301600082825401925050819055506001600b60003373ffffffffffffffffffffffffffffffffffffffff1673ffffffffffffffffffffffffffffffffffffffff16815260200190815260200160002060030160016101000a81548160ff02191690831515021790555050565b6000600254905090565b60008054906101000a900473ffffffffffffffffffffffffffffffffffffffff1673ffffffffffffffffffffffffffffffffffffffff163373ffffffffffffffffffffffffffffffffffffffff1614610f1e57600080fd5b6040518060a001604052808681526020018581526020018481526020018381526020018281525060056000820151816000019080519060200190610f63929190611b5c565b506020820151816001019080519060200190610f80929190611b5c565b506040820151816002019080519060200190610f9d929190611b5c565b506060820151816003019080519060200190610fba929190611b5c565b506080820151816004019080519060200190610fd7929190611b5c565b509050506001600360006101000a81548160ff0219169083151502179055506000600360016101000a81548160ff0219169083151502179055505050505050565b60008054906101000a900473ffffffffffffffffffffffffffffffffffffffff1673ffffffffffffffffffffffffffffffffffffffff163373ffffffffffffffffffffffffffffffffffffffff161461107057600080fd5b60006040518060800160405280600154815260200184815260200183815260200160008152509050806004600060015481526020019081526020016000206000820151816000015560208201518160010190805190602001906110d4929190611b5c565b5060408201518160020190805190602001906110f1929190611b5c565b506060820151816003015590505060018060008282540192505081905550505050565b60008054906101000a900473ffffffffffffffffffffffffffffffffffffffff1673ffffffffffffffffffffffffffffffffffffffff163373ffffffffffffffffffffffffffffffffffffffff161461116c57600080fd5b81600b60008373ffffffffffffffffffffffffffffffffffffffff1673ffffffffffffffffffffffffffffffffffffffff16815260200190815260200160002060030160006101000a81548160ff0219169083151502179055505050565b600b6020528060005260406000206000915090508060000160009054906101000a900473ffffffffffffffffffffffffffffffffffffffff1690806001018054600181600116156101000203166002900480601f01602080910402602001604051908101604052809291908181526020018280546001816001161561010002031660029004801561129c5780601f106112715761010080835404028352916020019161129c565b820191906000526020600020905b81548152906001019060200180831161127f57829003601f168201915b505050505090806002018054600181600116156101000203166002900480601f01602080910402602001604051908101604052809291908181526020018280546001816001161561010002031660029004801561133a5780601f1061130f5761010080835404028352916020019161133a565b820191906000526020600020905b81548152906001019060200180831161131d57829003601f168201915b5050505050908060030160009054906101000a900460ff16908060030160019054906101000a900460ff16908060030160029054906101000a900460ff16905086565b60008054906101000a900473ffffffffffffffffffffffffffffffffffffffff1673ffffffffffffffffffffffffffffffffffffffff163373ffffffffffffffffffffffffffffffffffffffff16146113d557600080fd5b6001600360016101000a81548160ff0219169083151502179055506000600360006101000a81548160ff021916908315150217905550565b6004602052806000526040600020600091509050806000015490806001018054600181600116156101000203166002900480601f0160208091040260200160405190810160405280929190818152602001828054600181600116156101000203166002900480156114bf5780601f10611494576101008083540402835291602001916114bf565b820191906000526020600020905b8154815290600101906020018083116114a257829003601f168201915b505050505090806002018054600181600116156101000203166002900480601f01602080910402602001604051908101604052809291908181526020018280546001816001161561010002031660029004801561155d5780601f106115325761010080835404028352916020019161155d565b820191906000526020600020905b81548152906001019060200180831161154057829003601f168201915b5050505050908060030154905084565b6000600154905090565b60008060009054906101000a900473ffffffffffffffffffffffffffffffffffffffff16905090565b6000600360019054906101000a900460ff16905090565b6000600360009054906101000a900460ff16905090565b600a81815481106115de57600080fd5b906000526020600020016000915054906101000a900473ffffffffffffffffffffffffffffffffffffffff1681565b606080606080606060056000016005600101600560020160056003016005600401848054600181600116156101000203166002900480601f0160208091040260200160405190810160405280929190818152602001828054600181600116156101000203166002900480156116c35780601f10611698576101008083540402835291602001916116c3565b820191906000526020600020905b8154815290600101906020018083116116a657829003601f168201915b50505050509450838054600181600116156101000203166002900480601f01602080910402602001604051908101604052809291908181526020018280546001816001161561010002031660029004801561175f5780601f106117345761010080835404028352916020019161175f565b820191906000526020600020905b81548152906001019060200180831161174257829003601f168201915b50505050509350828054600181600116156101000203166002900480601f0160208091040260200160405190810160405280929190818152602001828054600181600116156101000203166002900480156117fb5780601f106117d0576101008083540402835291602001916117fb565b820191906000526020600020905b8154815290600101906020018083116117de57829003601f168201915b50505050509250818054600181600116156101000203166002900480601f0160208091040260200160405190810160405280929190818152602001828054600181600116156101000203166002900480156118975780601f1061186c57610100808354040283529160200191611897565b820191906000526020600020905b81548152906001019060200180831161187a57829003601f168201915b50505050509150808054600181600116156101000203166002900480601f0160208091040260200160405190810160405280929190818152602001828054600181600116156101000203166002900480156119335780601f1061190857610100808354040283529160200191611933565b820191906000526020600020905b81548152906001019060200180831161191657829003601f168201915b50505050509050945094509450945094509091929394565b60008054906101000a900473ffffffffffffffffffffffffffffffffffffffff1681565b60006040518060c001604052803373ffffffffffffffffffffffffffffffffffffffff16815260200184815260200183815260200160001515815260200160001515815260200160011515815250905080600b60003373ffffffffffffffffffffffffffffffffffffffff1673ffffffffffffffffffffffffffffffffffffffff16815260200190815260200160002060008201518160000160006101000a81548173ffffffffffffffffffffffffffffffffffffffff021916908373ffffffffffffffffffffffffffffffffffffffff1602179055506020820151816001019080519060200190611a62929190611b5c565b506040820151816002019080519060200190611a7f929190611b5c565b5060608201518160030160006101000a81548160ff02191690831515021790555060808201518160030160016101000a81548160ff02191690831515021790555060a08201518160030160026101000a81548160ff021916908315150217905550905050600a339080600181540180825580915050600190039060005260206000200160009091909190916101000a81548173ffffffffffffffffffffffffffffffffffffffff021916908373ffffffffffffffffffffffffffffffffffffffff1602179055506001600260008282540192505081905550505050565b828054600181600116156101000203166002900490600052602060002090601f016020900481019282611b925760008555611bd9565b82601f10611bab57805160ff1916838001178555611bd9565b82800160010185558215611bd9579182015b82811115611bd8578251825591602001919060010190611bbd565b5b509050611be69190611bea565b5090565b5b80821115611c03576000816000905550600101611beb565b509056fea264697066735822122015478af1e521418aa64d4f225bc1a67e72b02b504ffdbc6580fd93cb68c5750464736f6c63430007060033",
  "immutableReferences": {},
  "source": "// SPDX-License-Identifier: MIT\r\npragma solidity >=0.4.21 <0.9.0;\r\n\r\ncontract Election {\r\n    address public admin;\r\n    uint256 candidateCount;\r\n    uint256 voterCount;\r\n    bool start;\r\n    bool end;\r\n\r\n    constructor() {\r\n        // Initilizing default values\r\n        admin = msg.sender;\r\n        candidateCount = 0;\r\n        voterCount = 0;\r\n        start = false;\r\n        end = false;\r\n    }\r\n\r\n    function getAdmin() public view returns (address) {\r\n        // Returns account address used to deploy contract (i.e. admin)\r\n        return admin;\r\n    }\r\n\r\n    modifier onlyAdmin() {\r\n        // Modifier for only admin access\r\n        require(msg.sender == admin);\r\n        _;\r\n    }\r\n    // Modeling a candidate\r\n    struct Candidate {\r\n        uint256 candidateId;\r\n        string header;\r\n        string slogan;\r\n        uint256 voteCount;\r\n    }\r\n    mapping(uint256 => Candidate) public candidateDetails;\r\n\r\n    // Adding new candidates\r\n    function addCandidate(string memory _header, string memory _slogan)\r\n        public\r\n        // Only admin can add\r\n        onlyAdmin\r\n    {\r\n        Candidate memory newCandidate =\r\n            Candidate({\r\n                candidateId: candidateCount,\r\n                header: _header,\r\n                slogan: _slogan,\r\n                voteCount: 0\r\n            });\r\n        candidateDetails[candidateCount] = newCandidate;\r\n        candidateCount += 1;\r\n    }\r\n\r\n    // Modeling a Election Details\r\n    struct ElectionDetails {\r\n        string adminName;\r\n        string adminEmail;\r\n        string adminTitle;\r\n        string electionTitle;\r\n        string organizationTitle;\r\n    }\r\n    ElectionDetails electionDetails;\r\n\r\n    function setElectionDetails(\r\n        string memory _adminName,\r\n        string memory _adminEmail,\r\n        string memory _adminTitle,\r\n        string memory _electionTitle,\r\n        string memory _organizationTitle\r\n    )\r\n        public\r\n        // Only admin can add\r\n        onlyAdmin\r\n    {\r\n        electionDetails = ElectionDetails(\r\n            _adminName,\r\n            _adminEmail,\r\n            _adminTitle,\r\n            _electionTitle,\r\n            _organizationTitle\r\n        );\r\n        start = true;\r\n        end = false;\r\n    }\r\n\r\n    // Get Elections details\r\n    function getElectionDetails()\r\n    public\r\n    view\r\n    returns(string memory adminName, \r\n    string memory adminEmail, \r\n    string memory adminTitle, \r\n    string memory electionTitle, \r\n    string memory organizationTitle){\r\n        return(electionDetails.adminName, \r\n        electionDetails.adminEmail, \r\n        electionDetails.adminTitle, \r\n        electionDetails.electionTitle, \r\n        electionDetails.organizationTitle);\r\n    }\r\n\r\n    // Get candidates count\r\n    function getTotalCandidate() public view returns (uint256) {\r\n        // Returns total number of candidates\r\n        return candidateCount;\r\n    }\r\n\r\n    // Get voters count\r\n    function getTotalVoter() public view returns (uint256) {\r\n        // Returns total number of voters\r\n        return voterCount;\r\n    }\r\n\r\n    // Modeling a voter\r\n    struct Voter {\r\n        address voterAddress;\r\n        string name;\r\n        string phone;\r\n        bool isVerified;\r\n        bool hasVoted;\r\n        bool isRegistered;\r\n    }\r\n    address[] public voters; // Array of address to store address of voters\r\n    mapping(address => Voter) public voterDetails;\r\n\r\n    // Request to be added as voter\r\n    function registerAsVoter(string memory _name, string memory _phone) public {\r\n        Voter memory newVoter =\r\n            Voter({\r\n                voterAddress: msg.sender,\r\n                name: _name,\r\n                phone: _phone,\r\n                hasVoted: false,\r\n                isVerified: false,\r\n                isRegistered: true\r\n            });\r\n        voterDetails[msg.sender] = newVoter;\r\n        voters.push(msg.sender);\r\n        voterCount += 1;\r\n    }\r\n\r\n    // Verify voter\r\n    function verifyVoter(bool _verifedStatus, address voterAddress)\r\n        public\r\n        // Only admin can verify\r\n        onlyAdmin\r\n    {\r\n        voterDetails[voterAddress].isVerified = _verifedStatus;\r\n    }\r\n\r\n    // Vote\r\n    function vote(uint256 candidateId) public {\r\n        require(voterDetails[msg.sender].hasVoted == false);\r\n        require(voterDetails[msg.sender].isVerified == true);\r\n        require(start == true);\r\n        require(end == false);\r\n        candidateDetails[candidateId].voteCount += 1;\r\n        voterDetails[msg.sender].hasVoted = true;\r\n    }\r\n\r\n    // End election\r\n    function endElection() public onlyAdmin {\r\n        end = true;\r\n        start = false;\r\n    }\r\n\r\n    // Get election start and end values\r\n    function getStart() public view returns (bool) {\r\n        return start;\r\n    }\r\n\r\n    function getEnd() public view returns (bool) {\r\n        return end;\r\n    }\r\n}\r\n",
  "sourcePath": "C:\\Users\\tat27\\Desktop\\VOTEZ\\contracts\\Election.sol",
  "compiler": {
    "name": "solc",
    "version": "0.7.6+commit.7338295f.Emscripten.clang"
  },
  "schemaVersion": "3.4.16",
  "updatedAt": "2024-07-13T22:55:13.308Z",
  "networkType": "ethereum",
  "devdoc": {
    "kind": "dev",
    "methods": {},
    "version": 1
  },
  "userdoc": {
    "kind": "user",
    "methods": {},
    "version": 1
  }
}